:03000000020006F5
:03005F0002000399
:0300030002007187
:1F006200AE82AF83E5082EF582E5093FF583227508027509009000011200629000002210
:06003500E478FFF6D8FD9F
:200013007900E94400601B7A00900085780175A000E493F2A308B8000205A0D9F4DAF2750E
:02003300A0FF2C
:20003B007800E84400600A790175A000E4F309D8FC7800E84400600C7900900001E4F0A3C3
:04005B00D8FCD9FAFA
:0D000600758109120081E58260030200038C
:040081007582002262
:00000001FF
